{
  "_format": "hh-sol-artifact-1",
  "contractName": "Identity",
  "sourceName": "contracts/Identity.sol",
  "abi": [
    {
      "anonymous": false,
      "inputs": [
        {
          "indexed": false,
          "internalType": "uint256",
          "name": "id",
          "type": "uint256"
        },
        {
          "indexed": false,
          "internalType": "address",
          "name": "from",
          "type": "address"
        },
        {
          "indexed": false,
          "internalType": "enum Identity.Type",
          "name": "ctype",
          "type": "uint8"
        },
        {
          "indexed": false,
          "internalType": "enum Identity.State",
          "name": "state",
          "type": "uint8"
        }
      ],
      "name": "Burnt",
      "type": "event"
    },
    {
      "anonymous": false,
      "inputs": [
        {
          "indexed": false,
          "internalType": "uint256",
          "name": "id",
          "type": "uint256"
        },
        {
          "indexed": false,
          "internalType": "address",
          "name": "owner",
          "type": "address"
        },
        {
          "indexed": false,
          "internalType": "enum Identity.Type",
          "name": "ctype",
          "type": "uint8"
        },
        {
          "indexed": false,
          "internalType": "enum Identity.State",
          "name": "state",
          "type": "uint8"
        }
      ],
      "name": "Minted",
      "type": "event"
    },
    {
      "anonymous": false,
      "inputs": [
        {
          "indexed": false,
          "internalType": "uint256",
          "name": "id",
          "type": "uint256"
        },
        {
          "indexed": false,
          "internalType": "address",
          "name": "from",
          "type": "address"
        },
        {
          "indexed": false,
          "internalType": "address",
          "name": "to",
          "type": "address"
        },
        {
          "indexed": false,
          "internalType": "enum Identity.Type",
          "name": "ctype",
          "type": "uint8"
        },
        {
          "indexed": false,
          "internalType": "enum Identity.State",
          "name": "state",
          "type": "uint8"
        }
      ],
      "name": "Transfered",
      "type": "event"
    },
    {
      "anonymous": false,
      "inputs": [
        {
          "indexed": false,
          "internalType": "uint256",
          "name": "did",
          "type": "uint256"
        },
        {
          "indexed": false,
          "internalType": "uint256",
          "name": "org",
          "type": "uint256"
        },
        {
          "indexed": false,
          "internalType": "address",
          "name": "owner",
          "type": "address"
        },
        {
          "indexed": false,
          "internalType": "enum Identity.Attest",
          "name": "status",
          "type": "uint8"
        }
      ],
      "name": "Validated",
      "type": "event"
    },
    {
      "inputs": [
        {
          "internalType": "uint256",
          "name": "did",
          "type": "uint256"
        },
        {
          "internalType": "uint256",
          "name": "org",
          "type": "uint256"
        }
      ],
      "name": "attestCancel",
      "outputs": [],
      "stateMutability": "nonpayable",
      "type": "function"
    },
    {
      "inputs": [
        {
          "internalType": "uint256",
          "name": "did",
          "type": "uint256"
        },
        {
          "internalType": "uint256",
          "name": "org",
          "type": "uint256"
        }
      ],
      "name": "attestRequest",
      "outputs": [],
      "stateMutability": "nonpayable",
      "type": "function"
    },
    {
      "inputs": [
        {
          "internalType": "uint256",
          "name": "did",
          "type": "uint256"
        },
        {
          "internalType": "uint256",
          "name": "org",
          "type": "uint256"
        },
        {
          "internalType": "uint256",
          "name": "status",
          "type": "uint256"
        }
      ],
      "name": "attestValidate",
      "outputs": [],
      "stateMutability": "nonpayable",
      "type": "function"
    },
    {
      "inputs": [
        {
          "internalType": "uint256",
          "name": "did",
          "type": "uint256"
        }
      ],
      "name": "burn",
      "outputs": [],
      "stateMutability": "nonpayable",
      "type": "function"
    },
    {
      "inputs": [
        {
          "internalType": "address",
          "name": "_owner",
          "type": "address"
        }
      ],
      "name": "getAssetsOf",
      "outputs": [
        {
          "internalType": "uint256[]",
          "name": "",
          "type": "uint256[]"
        }
      ],
      "stateMutability": "view",
      "type": "function"
    },
    {
      "inputs": [
        {
          "internalType": "uint256",
          "name": "did",
          "type": "uint256"
        }
      ],
      "name": "getContentOf",
      "outputs": [
        {
          "internalType": "string",
          "name": "",
          "type": "string"
        }
      ],
      "stateMutability": "view",
      "type": "function"
    },
    {
      "inputs": [
        {
          "internalType": "uint256",
          "name": "did",
          "type": "uint256"
        }
      ],
      "name": "getMetaOf",
      "outputs": [
        {
          "components": [
            {
              "internalType": "enum Identity.Type",
              "name": "ctype",
              "type": "uint8"
            },
            {
              "internalType": "enum Identity.State",
              "name": "state",
              "type": "uint8"
            },
            {
              "internalType": "uint256",
              "name": "parent",
              "type": "uint256"
            }
          ],
          "internalType": "struct Identity.CredMeta",
          "name": "",
          "type": "tuple"
        }
      ],
      "stateMutability": "view",
      "type": "function"
    },
    {
      "inputs": [
        {
          "internalType": "string",
          "name": "cid",
          "type": "string"
        }
      ],
      "name": "getOwnerOf",
      "outputs": [
        {
          "internalType": "address",
          "name": "",
          "type": "address"
        }
      ],
      "stateMutability": "view",
      "type": "function"
    },
    {
      "inputs": [
        {
          "internalType": "uint256",
          "name": "orgId",
          "type": "uint256"
        }
      ],
      "name": "getRequests",
      "outputs": [
        {
          "internalType": "uint256[]",
          "name": "",
          "type": "uint256[]"
        }
      ],
      "stateMutability": "view",
      "type": "function"
    },
    {
      "inputs": [],
      "name": "lastID",
      "outputs": [
        {
          "internalType": "uint256",
          "name": "",
          "type": "uint256"
        }
      ],
      "stateMutability": "view",
      "type": "function"
    },
    {
      "inputs": [
        {
          "internalType": "string",
          "name": "cid",
          "type": "string"
        },
        {
          "internalType": "uint256",
          "name": "ctypeId",
          "type": "uint256"
        }
      ],
      "name": "mintDocument",
      "outputs": [],
      "stateMutability": "payable",
      "type": "function"
    },
    {
      "inputs": [
        {
          "internalType": "string",
          "name": "cid",
          "type": "string"
        }
      ],
      "name": "mintOrganization",
      "outputs": [],
      "stateMutability": "payable",
      "type": "function"
    },
    {
      "inputs": [
        {
          "internalType": "string",
          "name": "cid",
          "type": "string"
        },
        {
          "internalType": "uint256",
          "name": "state",
          "type": "uint256"
        },
        {
          "internalType": "uint256",
          "name": "orgId",
          "type": "uint256"
        }
      ],
      "name": "mintSchema",
      "outputs": [],
      "stateMutability": "payable",
      "type": "function"
    },
    {
      "inputs": [
        {
          "internalType": "uint256",
          "name": "did",
          "type": "uint256"
        },
        {
          "internalType": "address",
          "name": "to",
          "type": "address"
        }
      ],
      "name": "transferCredential",
      "outputs": [],
      "stateMutability": "payable",
      "type": "function"
    },
    {
      "inputs": [
        {
          "internalType": "uint256",
          "name": "did",
          "type": "uint256"
        },
        {
          "internalType": "address",
          "name": "to",
          "type": "address"
        }
      ],
      "name": "transferOrganzation",
      "outputs": [],
      "stateMutability": "payable",
      "type": "function"
    },
    {
      "inputs": [
        {
          "internalType": "uint256",
          "name": "did",
          "type": "uint256"
        },
        {
          "internalType": "uint256",
          "name": "parent",
          "type": "uint256"
        },
        {
          "internalType": "address",
          "name": "to",
          "type": "address"
        }
      ],
      "name": "transferSchema",
      "outputs": [],
      "stateMutability": "payable",
      "type": "function"
    },
    {
      "inputs": [
        {
          "internalType": "uint256",
          "name": "did",
          "type": "uint256"
        }
      ],
      "name": "verify",
      "outputs": [
        {
          "internalType": "bool",
          "name": "",
          "type": "bool"
        }
      ],
      "stateMutability": "view",
      "type": "function"
    }
  ],
  "bytecode": "0x608060405234801561001057600080fd5b50613653806100206000396000f3fe6080604052600436106100fe5760003560e01c80638753367f11610095578063c39dba9d11610064578063c39dba9d1461030b578063c5dd79f214610348578063d5e7882914610364578063e31a9d92146103a1578063f0599326146103cc576100fe565b80638753367f146102595780639f732fc214610296578063a2b7f294146102b2578063bef48ddf146102ce576100fe565b806353a12fc7116100d157806353a12fc7146101bb5780635ac0e090146101d75780636e46e58d1461020057806377ff8bc21461023d576100fe565b80630db8ff82146101035780633bff379b1461012c57806342966c681461015557806343466d041461017e575b600080fd5b34801561010f57600080fd5b5061012a6004803603810190610125919061259d565b6103e8565b005b34801561013857600080fd5b50610153600480360381019061014e91906125dd565b610677565b005b34801561016157600080fd5b5061017c60048036038101906101779190612630565b610913565b005b34801561018a57600080fd5b506101a560048036038101906101a09190612630565b610cd7565b6040516101b2919061276d565b60405180910390f35b6101d560048036038101906101d091906128ce565b610d84565b005b3480156101e357600080fd5b506101fe60048036038101906101f9919061259d565b610e66565b005b34801561020c57600080fd5b5061022760048036038101906102229190612630565b611004565b60405161023491906129c5565b60405180910390f35b61025760048036038101906102529190612a45565b6110a9565b005b34801561026557600080fd5b50610280600480360381019061027b9190612630565b6112f7565b60405161028d9190612ab3565b60405180910390f35b6102b060048036038101906102ab9190612ace565b611398565b005b6102cc60048036038101906102c79190612b2a565b6114ad565b005b3480156102da57600080fd5b506102f560048036038101906102f09190612b6a565b61180c565b6040516103029190612bc2565b60405180910390f35b34801561031757600080fd5b50610332600480360381019061032d9190612bdd565b611854565b60405161033f9190612cb9565b60405180910390f35b610362600480360381019061035d9190612b6a565b6118eb565b005b34801561037057600080fd5b5061038b60048036038101906103869190612630565b6118fd565b6040516103989190612cb9565b60405180910390f35b3480156103ad57600080fd5b506103b6611968565b6040516103c39190612cea565b60405180910390f35b6103e660048036038101906103e19190612b2a565b61196e565b005b80600054811061042d576040517f08c379a000000000000000000000000000000000000000000000000000000000815260040161042490612d51565b60405180910390fd5b600060028111156104415761044061265d565b5b6002600083815260200190815260200160002060000160009054906101000a900460ff1660028111156104775761047661265d565b5b146104b7576040517f08c379a00000000000000000000000000000000000000000000000000000000081526004016104ae90612dbd565b60405180910390fd5b813373ffffffffffffffffffffffffffffffffffffffff166003600160008481526020019081526020016000206040516104f19190612edd565b908152602001604051809103902060009054906101000a900473ffffffffffffffffffffffffffffffffffffffff1673ffffffffffffffffffffffffffffffffffffffff161415610577576040517f08c379a000000000000000000000000000000000000000000000000000000000815260040161056e90612f66565b60405180910390fd5b833373ffffffffffffffffffffffffffffffffffffffff166003600160008481526020019081526020016000206040516105b19190612edd565b908152602001604051809103902060009054906101000a900473ffffffffffffffffffffffffffffffffffffffff1673ffffffffffffffffffffffffffffffffffffffff1614610636576040517f08c379a000000000000000000000000000000000000000000000000000000000815260040161062d90612ff8565b60405180910390fd5b600660008581526020019081526020016000208590806001815401808255809150506001900390600052602060002001600090919091909150555050505050565b8160005481106106bc576040517f08c379a00000000000000000000000000000000000000000000000000000000081526004016106b390612d51565b60405180910390fd5b600060028111156106d0576106cf61265d565b5b6002600083815260200190815260200160002060000160009054906101000a900460ff1660028111156107065761070561265d565b5b14610746576040517f08c379a000000000000000000000000000000000000000000000000000000000815260040161073d90612dbd565b60405180910390fd5b823373ffffffffffffffffffffffffffffffffffffffff166003600160008481526020019081526020016000206040516107809190612edd565b908152602001604051809103902060009054906101000a900473ffffffffffffffffffffffffffffffffffffffff1673ffffffffffffffffffffffffffffffffffffffff1614610805576040517f08c379a00000000000000000000000000000000000000000000000000000000081526004016107fc90612ff8565b60405180910390fd5b8260018111156108185761081761265d565b5b60056000868152602001908152602001600020600087815260200190815260200160002060006101000a81548160ff0219169083600181111561085e5761085d61265d565b5b021790555061086d8585611c2a565b7feb558b7bcbf6e1d30896c9416f00b9d9a8e48fe2e54e895cb00a1493501d5a0585856003600160008a81526020019081526020016000206040516108b29190612edd565b908152602001604051809103902060009054906101000a900473ffffffffffffffffffffffffffffffffffffffff168660018111156108f4576108f361265d565b5b6040516109049493929190613060565b60405180910390a15050505050565b600060016000838152602001908152602001600020805461093390612e0c565b80601f016020809104026020016040519081016040528092919081815260200182805461095f90612e0c565b80156109ac5780601f10610981576101008083540402835291602001916109ac565b820191906000526020600020905b81548152906001019060200180831161098f57829003601f168201915b5050505050905060006003826040516109c591906130d6565b908152602001604051809103902060009054906101000a900473ffffffffffffffffffffffffffffffffffffffff1690508073ffffffffffffffffffffffffffffffffffffffff163373ffffffffffffffffffffffffffffffffffffffff1614610a64576040517f08c379a0000000000000000000000000000000000000000000000000000000008152600401610a5b90613139565b60405180910390fd5b6000600260008581526020019081526020016000206040518060600160405290816000820160009054906101000a900460ff166002811115610aa957610aa861265d565b5b6002811115610abb57610aba61265d565b5b81526020016000820160019054906101000a900460ff166004811115610ae457610ae361265d565b5b6004811115610af657610af561265d565b5b81526020016001820154815250509050600280811115610b1957610b1861265d565b5b81600001516002811115610b3057610b2f61265d565b5b14610b70576040517f08c379a0000000000000000000000000000000000000000000000000000000008152600401610b67906131a5565b60405180910390fd5b60008490506000826040015190506000600260008381526020019081526020016000206001015490506000846020015190506000856000015190507f4ebf45857bee9e6c1c8e0d66077aac643049ec68cd02416c974a33f761e9171785888385604051610be094939291906131e3565b60405180910390a1600160008a81526020019081526020016000206000610c07919061242b565b600260008a8152602001908152602001600020600080820160006101000a81549060ff02191690556000820160016101000a81549060ff021916905560018201600090555050600388604051610c5d91906130d6565b908152602001604051809103902060006101000a81549073ffffffffffffffffffffffffffffffffffffffff02191690556005600084815260200190815260200160002060008a815260200190815260200160002060006101000a81549060ff0219169055610ccc878a611d5f565b505050505050505050565b610cdf61246b565b600260008381526020019081526020016000206040518060600160405290816000820160009054906101000a900460ff166002811115610d2257610d2161265d565b5b6002811115610d3457610d3361265d565b5b81526020016000820160019054906101000a900460ff166004811115610d5d57610d5c61265d565b5b6004811115610d6f57610d6e61265d565b5b81526020016001820154815250509050919050565b806000548110610dc9576040517f08c379a0000000000000000000000000000000000000000000000000000000008152600401610dc090612d51565b60405180910390fd5b60006002811115610ddd57610ddc61265d565b5b6002600083815260200190815260200160002060000160009054906101000a900460ff166002811115610e1357610e1261265d565b5b14610e53576040517f08c379a0000000000000000000000000000000000000000000000000000000008152600401610e4a90612dbd565b60405180910390fd5b610e608460018585611f9c565b50505050565b806000548110610eab576040517f08c379a0000000000000000000000000000000000000000000000000000000008152600401610ea290612d51565b60405180910390fd5b60006002811115610ebf57610ebe61265d565b5b6002600083815260200190815260200160002060000160009054906101000a900460ff166002811115610ef557610ef461265d565b5b14610f35576040517f08c379a0000000000000000000000000000000000000000000000000000000008152600401610f2c90612dbd565b60405180910390fd5b823373ffffffffffffffffffffffffffffffffffffffff16600360016000848152602001908152602001600020604051610f6f9190612edd565b908152602001604051809103902060009054906101000a900473ffffffffffffffffffffffffffffffffffffffff1673ffffffffffffffffffffffffffffffffffffffff1614610ff4576040517f08c379a0000000000000000000000000000000000000000000000000000000008152600401610feb90612ff8565b60405180910390fd5b610ffe8484611c2a565b50505050565b606060016000838152602001908152602001600020805461102490612e0c565b80601f016020809104026020016040519081016040528092919081815260200182805461105090612e0c565b801561109d5780601f106110725761010080835404028352916020019161109d565b820191906000526020600020905b81548152906001019060200180831161108057829003601f168201915b50505050509050919050565b8260005481106110ee576040517f08c379a00000000000000000000000000000000000000000000000000000000081526004016110e590612d51565b60405180910390fd5b600160028111156111025761110161265d565b5b6002600083815260200190815260200160002060000160009054906101000a900460ff1660028111156111385761113761265d565b5b14611178576040517f08c379a000000000000000000000000000000000000000000000000000000000815260040161116f90613274565b60405180910390fd5b600060016000868152602001908152602001600020805461119890612e0c565b80601f01602080910402602001604051908101604052809291908181526020018280546111c490612e0c565b80156112115780601f106111e657610100808354040283529160200191611211565b820191906000526020600020905b8154815290600101906020018083116111f457829003601f168201915b50505050509050600060038260405161122a91906130d6565b908152602001604051809103902060009054906101000a900473ffffffffffffffffffffffffffffffffffffffff1690508073ffffffffffffffffffffffffffffffffffffffff163373ffffffffffffffffffffffffffffffffffffffff16146112c9576040517f08c379a00000000000000000000000000000000000000000000000000000000081526004016112c090613139565b60405180910390fd5b8460026000888152602001908152602001600020600101819055506112ef8685836122c2565b505050505050565b60008060026000848152602001908152602001600020600101549050600060026000838152602001908152602001600020600101549050600060056000838152602001908152602001600020600086815260200190815260200160002060009054906101000a900460ff16905060018160018111156113795761137861265d565b5b141561138b5760019350505050611393565b600093505050505b919050565b8060005481106113dd576040517f08c379a00000000000000000000000000000000000000000000000000000000081526004016113d490612d51565b60405180910390fd5b600160028111156113f1576113f061265d565b5b6002600083815260200190815260200160002060000160009054906101000a900460ff1660028111156114275761142661265d565b5b14611467576040517f08c379a000000000000000000000000000000000000000000000000000000000815260040161145e90613274565b60405180910390fd5b6114a883600280600086815260200190815260200160002060000160019054906101000a900460ff1660048111156114a2576114a161265d565b5b85611f9c565b505050565b8160005481106114f2576040517f08c379a00000000000000000000000000000000000000000000000000000000081526004016114e990612d51565b60405180910390fd5b600060028111156115065761150561265d565b5b6002600083815260200190815260200160002060000160009054906101000a900460ff16600281111561153c5761153b61265d565b5b1461157c576040517f08c379a000000000000000000000000000000000000000000000000000000000815260040161157390612dbd565b60405180910390fd5b600060016000858152602001908152602001600020805461159c90612e0c565b80601f01602080910402602001604051908101604052809291908181526020018280546115c890612e0c565b80156116155780601f106115ea57610100808354040283529160200191611615565b820191906000526020600020905b8154815290600101906020018083116115f857829003601f168201915b50505050509050600060038260405161162e91906130d6565b908152602001604051809103902060009054906101000a900473ffffffffffffffffffffffffffffffffffffffff1690508073ffffffffffffffffffffffffffffffffffffffff163373ffffffffffffffffffffffffffffffffffffffff16146116cd576040517f08c379a00000000000000000000000000000000000000000000000000000000081526004016116c490613139565b60405180910390fd5b60006116d882611854565b9050600080600090505b82518110156117b357600160028111156116ff576116fe61265d565b5b6002600085848151811061171657611715613294565b5b6020026020010151815260200190815260200160002060000160009054906101000a900460ff16600281111561174f5761174e61265d565b5b14801561178b5750876002600085848151811061176f5761176e613294565b5b6020026020010151815260200190815260200160002060010154145b156117a05760018261179d91906132f2565b91505b80806117ab90613348565b9150506116e2565b5060008111156117f8576040517f08c379a00000000000000000000000000000000000000000000000000000000081526004016117ef90613403565b60405180910390fd5b6118038787856122c2565b50505050505050565b600060038260405161181e91906130d6565b908152602001604051809103902060009054906101000a900473ffffffffffffffffffffffffffffffffffffffff169050919050565b6060600460008373ffffffffffffffffffffffffffffffffffffffff1673ffffffffffffffffffffffffffffffffffffffff1681526020019081526020016000208054806020026020016040519081016040528092919081815260200182805480156118df57602002820191906000526020600020905b8154815260200190600101908083116118cb575b50505050509050919050565b6118fa81600060046000611f9c565b50565b60606006600083815260200190815260200160002080548060200260200160405190810160405280929190818152602001828054801561195c57602002820191906000526020600020905b815481526020019060010190808311611948575b50505050509050919050565b60005481565b8160005481106119b3576040517f08c379a00000000000000000000000000000000000000000000000000000000081526004016119aa90612d51565b60405180910390fd5b6002808111156119c6576119c561265d565b5b6002600083815260200190815260200160002060000160009054906101000a900460ff1660028111156119fc576119fb61265d565b5b14611a3c576040517f08c379a0000000000000000000000000000000000000000000000000000000008152600401611a339061346f565b60405180910390fd5b82600480811115611a5057611a4f61265d565b5b6002600083815260200190815260200160002060000160019054906101000a900460ff166004811115611a8657611a8561265d565b5b14611ac6576040517f08c379a0000000000000000000000000000000000000000000000000000000008152600401611abd906134db565b60405180910390fd5b6000600160008681526020019081526020016000208054611ae690612e0c565b80601f0160208091040260200160405190810160405280929190818152602001828054611b1290612e0c565b8015611b5f5780601f10611b3457610100808354040283529160200191611b5f565b820191906000526020600020905b815481529060010190602001808311611b4257829003601f168201915b505050505090506000600382604051611b7891906130d6565b908152602001604051809103902060009054906101000a900473ffffffffffffffffffffffffffffffffffffffff1690508073ffffffffffffffffffffffffffffffffffffffff163373ffffffffffffffffffffffffffffffffffffffff1614611c17576040517f08c379a0000000000000000000000000000000000000000000000000000000008152600401611c0e90613139565b60405180910390fd5b611c228686836122c2565b505050505050565b60005b6006600083815260200190815260200160002080549050811015611d5a5782600660008481526020019081526020016000208281548110611c7157611c70613294565b5b90600052602060002001541415611d4757600060016006600085815260200190815260200160002080549050611ca791906134fb565b9050600660008481526020019081526020016000208181548110611cce57611ccd613294565b5b9060005260206000200154600660008581526020019081526020016000208381548110611cfe57611cfd613294565b5b906000526020600020018190555060066000848152602001908152602001600020805480611d2f57611d2e61352f565b5b60019003818190600052602060002001600090559055505b8080611d5290613348565b915050611c2d565b505050565b60005b600460008473ffffffffffffffffffffffffffffffffffffffff1673ffffffffffffffffffffffffffffffffffffffff16815260200190815260200160002080549050811015611f975781600460008573ffffffffffffffffffffffffffffffffffffffff1673ffffffffffffffffffffffffffffffffffffffff1681526020019081526020016000208281548110611dfe57611dfd613294565b5b90600052602060002001541415611f845760006001600460008673ffffffffffffffffffffffffffffffffffffffff1673ffffffffffffffffffffffffffffffffffffffff16815260200190815260200160002080549050611e6091906134fb565b9050600460008573ffffffffffffffffffffffffffffffffffffffff1673ffffffffffffffffffffffffffffffffffffffff1681526020019081526020016000208181548110611eb357611eb2613294565b5b9060005260206000200154600460008673ffffffffffffffffffffffffffffffffffffffff1673ffffffffffffffffffffffffffffffffffffffff1681526020019081526020016000208381548110611f0f57611f0e613294565b5b9060005260206000200181905550600460008573ffffffffffffffffffffffffffffffffffffffff1673ffffffffffffffffffffffffffffffffffffffff168152602001908152602001600020805480611f6c57611f6b61352f565b5b60019003818190600052602060002001600090559055505b8080611f8f90613348565b915050611d62565b505050565b6000600385604051611fae91906130d6565b908152602001604051809103902060009054906101000a900473ffffffffffffffffffffffffffffffffffffffff169050600080549050600073ffffffffffffffffffffffffffffffffffffffff168273ffffffffffffffffffffffffffffffffffffffff1614612054576040517f08c379a000000000000000000000000000000000000000000000000000000000815260040161204b906135aa565b60405180910390fd5b8560016000838152602001908152602001600020908051906020019061207b9291906124b0565b503360038760405161208d91906130d6565b908152602001604051809103902060006101000a81548173ffffffffffffffffffffffffffffffffffffffff021916908373ffffffffffffffffffffffffffffffffffffffff16021790555060405180606001604052808660028111156120f7576120f661265d565b5b60028111156121095761210861265d565b5b81526020018560048111156121215761212061265d565b5b60048111156121335761213261265d565b5b8152602001848152506002600083815260200190815260200160002060008201518160000160006101000a81548160ff0219169083600281111561217a5761217961265d565b5b021790555060208201518160000160016101000a81548160ff021916908360048111156121aa576121a961265d565b5b021790555060408201518160010155905050600460003373ffffffffffffffffffffffffffffffffffffffff1673ffffffffffffffffffffffffffffffffffffffff168152602001908152602001600020819080600181540180825580915050600190039060005260206000200160009091909190915055600160005461223191906132f2565b6000819055507f7c606933e0e2dc0e3123525bb9c90f6c4bf638c5e3431c63bf7e65e9dffc6a0c81336002600085815260200190815260200160002060000160009054906101000a900460ff166002600086815260200190815260200160002060000160019054906101000a900460ff166040516122b294939291906131e3565b60405180910390a1505050505050565b816003600160008681526020019081526020016000206040516122e59190612edd565b908152602001604051809103902060006101000a81548173ffffffffffffffffffffffffffffffffffffffff021916908373ffffffffffffffffffffffffffffffffffffffff160217905550600460008373ffffffffffffffffffffffffffffffffffffffff1673ffffffffffffffffffffffffffffffffffffffff1681526020019081526020016000208390806001815401808255809150506001900390600052602060002001600090919091909150556123a18184611d5f565b7f0cc49a2e6bf361e5d8955eff1c47ed3362c585a909b83b5514e21dedb7c121228382846002600088815260200190815260200160002060000160009054906101000a900460ff166002600089815260200190815260200160002060000160019054906101000a900460ff1660405161241e9594939291906135ca565b60405180910390a1505050565b50805461243790612e0c565b6000825580601f106124495750612468565b601f0160209004906000526020600020908101906124679190612536565b5b50565b60405180606001604052806000600281111561248a5761248961265d565b5b8152602001600060048111156124a3576124a261265d565b5b8152602001600081525090565b8280546124bc90612e0c565b90600052602060002090601f0160209004810192826124de5760008555612525565b82601f106124f757805160ff1916838001178555612525565b82800160010185558215612525579182015b82811115612524578251825591602001919060010190612509565b5b5090506125329190612536565b5090565b5b8082111561254f576000816000905550600101612537565b5090565b6000604051905090565b600080fd5b600080fd5b6000819050919050565b61257a81612567565b811461258557600080fd5b50565b60008135905061259781612571565b92915050565b600080604083850312156125b4576125b361255d565b5b60006125c285828601612588565b92505060206125d385828601612588565b9150509250929050565b6000806000606084860312156125f6576125f561255d565b5b600061260486828701612588565b935050602061261586828701612588565b925050604061262686828701612588565b9150509250925092565b6000602082840312156126465761264561255d565b5b600061265484828501612588565b91505092915050565b7f4e487b7100000000000000000000000000000000000000000000000000000000600052602160045260246000fd5b6003811061269d5761269c61265d565b5b50565b60008190506126ae8261268c565b919050565b60006126be826126a0565b9050919050565b6126ce816126b3565b82525050565b600581106126e5576126e461265d565b5b50565b60008190506126f6826126d4565b919050565b6000612706826126e8565b9050919050565b612716816126fb565b82525050565b61272581612567565b82525050565b60608201600082015161274160008501826126c5565b506020820151612754602085018261270d565b506040820151612767604085018261271c565b50505050565b6000606082019050612782600083018461272b565b92915050565b600080fd5b600080fd5b6000601f19601f8301169050919050565b7f4e487b7100000000000000000000000000000000000000000000000000000000600052604160045260246000fd5b6127db82612792565b810181811067ffffffffffffffff821117156127fa576127f96127a3565b5b80604052505050565b600061280d612553565b905061281982826127d2565b919050565b600067ffffffffffffffff821115612839576128386127a3565b5b61284282612792565b9050602081019050919050565b82818337600083830152505050565b600061287161286c8461281e565b612803565b90508281526020810184848401111561288d5761288c61278d565b5b61289884828561284f565b509392505050565b600082601f8301126128b5576128b4612788565b5b81356128c584826020860161285e565b91505092915050565b6000806000606084860312156128e7576128e661255d565b5b600084013567ffffffffffffffff81111561290557612904612562565b5b612911868287016128a0565b935050602061292286828701612588565b925050604061293386828701612588565b9150509250925092565b600081519050919050565b600082825260208201905092915050565b60005b8381101561297757808201518184015260208101905061295c565b83811115612986576000848401525b50505050565b60006129978261293d565b6129a18185612948565b93506129b1818560208601612959565b6129ba81612792565b840191505092915050565b600060208201905081810360008301526129df818461298c565b905092915050565b600073ffffffffffffffffffffffffffffffffffffffff82169050919050565b6000612a12826129e7565b9050919050565b612a2281612a07565b8114612a2d57600080fd5b50565b600081359050612a3f81612a19565b92915050565b600080600060608486031215612a5e57612a5d61255d565b5b6000612a6c86828701612588565b9350506020612a7d86828701612588565b9250506040612a8e86828701612a30565b9150509250925092565b60008115159050919050565b612aad81612a98565b82525050565b6000602082019050612ac86000830184612aa4565b92915050565b60008060408385031215612ae557612ae461255d565b5b600083013567ffffffffffffffff811115612b0357612b02612562565b5b612b0f858286016128a0565b9250506020612b2085828601612588565b9150509250929050565b60008060408385031215612b4157612b4061255d565b5b6000612b4f85828601612588565b9250506020612b6085828601612a30565b9150509250929050565b600060208284031215612b8057612b7f61255d565b5b600082013567ffffffffffffffff811115612b9e57612b9d612562565b5b612baa848285016128a0565b91505092915050565b612bbc81612a07565b82525050565b6000602082019050612bd76000830184612bb3565b92915050565b600060208284031215612bf357612bf261255d565b5b6000612c0184828501612a30565b91505092915050565b600081519050919050565b600082825260208201905092915050565b6000819050602082019050919050565b6000612c42838361271c565b60208301905092915050565b6000602082019050919050565b6000612c6682612c0a565b612c708185612c15565b9350612c7b83612c26565b8060005b83811015612cac578151612c938882612c36565b9750612c9e83612c4e565b925050600181019050612c7f565b5085935050505092915050565b60006020820190508181036000830152612cd38184612c5b565b905092915050565b612ce481612567565b82525050565b6000602082019050612cff6000830184612cdb565b92915050565b7f4944206e6f742065786973740000000000000000000000000000000000000000600082015250565b6000612d3b600c83612948565b9150612d4682612d05565b602082019050919050565b60006020820190508181036000830152612d6a81612d2e565b9050919050565b7f444944206973206e6f7420616e206f72676e61697a6174696f6e2e0000000000600082015250565b6000612da7601b83612948565b9150612db282612d71565b602082019050919050565b60006020820190508181036000830152612dd681612d9a565b9050919050565b7f4e487b7100000000000000000000000000000000000000000000000000000000600052602260045260246000fd5b60006002820490506001821680612e2457607f821691505b60208210811415612e3857612e37612ddd565b5b50919050565b600081905092915050565b60008190508160005260206000209050919050565b60008154612e6b81612e0c565b612e758186612e3e565b94506001821660008114612e905760018114612ea157612ed4565b60ff19831686528186019350612ed4565b612eaa85612e49565b60005b83811015612ecc57815481890152600182019150602081019050612ead565b838801955050505b50505092915050565b6000612ee98284612e5e565b915081905092915050565b7f4f7267206f776e6572207573652061747465737456616c696461746520696e7360008201527f7465616400000000000000000000000000000000000000000000000000000000602082015250565b6000612f50602483612948565b9150612f5b82612ef4565b604082019050919050565b60006020820190508181036000830152612f7f81612f43565b9050919050565b7f556e617574686f72697a656421204f6e6c79206f776e657220616c6c6f77656460008201527f2100000000000000000000000000000000000000000000000000000000000000602082015250565b6000612fe2602183612948565b9150612fed82612f86565b604082019050919050565b6000602082019050818103600083015261301181612fd5565b9050919050565b600281106130295761302861265d565b5b50565b600081905061303a82613018565b919050565b600061304a8261302c565b9050919050565b61305a8161303f565b82525050565b60006080820190506130756000830187612cdb565b6130826020830186612cdb565b61308f6040830185612bb3565b61309c6060830184613051565b95945050505050565b60006130b08261293d565b6130ba8185612e3e565b93506130ca818560208601612959565b80840191505092915050565b60006130e282846130a5565b915081905092915050565b7f556e617574686f72697a65640000000000000000000000000000000000000000600082015250565b6000613123600c83612948565b915061312e826130ed565b602082019050919050565b6000602082019050818103600083015261315281613116565b9050919050565b7f4f6e6c792063726564656e7469616c2063616e206265206275726e742e000000600082015250565b600061318f601d83612948565b915061319a82613159565b602082019050919050565b600060208201905081810360008301526131be81613182565b9050919050565b6131ce816126b3565b82525050565b6131dd816126fb565b82525050565b60006080820190506131f86000830187612cdb565b6132056020830186612bb3565b61321260408301856131c5565b61321f60608301846131d4565b95945050505050565b7f444944206973206e6f74206120736368656d612e000000000000000000000000600082015250565b600061325e601483612948565b915061326982613228565b602082019050919050565b6000602082019050818103600083015261328d81613251565b9050919050565b7f4e487b7100000000000000000000000000000000000000000000000000000000600052603260045260246000fd5b7f4e487b7100000000000000000000000000000000000000000000000000000000600052601160045260246000fd5b60006132fd82612567565b915061330883612567565b9250827fffffffffffffffffffffffffffffffffffffffffffffffffffffffffffffffff0382111561333d5761333c6132c3565b5b828201905092915050565b600061335382612567565b91507fffffffffffffffffffffffffffffffffffffffffffffffffffffffffffffffff821415613386576133856132c3565b5b600182019050919050565b7f536368656d61732065786973742e20506c65617365207472616e73666572207360008201527f6368656d61732066697273742e00000000000000000000000000000000000000602082015250565b60006133ed602d83612948565b91506133f882613391565b604082019050919050565b6000602082019050818103600083015261341c816133e0565b9050919050565b7f444944206973206e6f7420612063726564656e7469616c2e0000000000000000600082015250565b6000613459601883612948565b915061346482613423565b602082019050919050565b600060208201905081810360008301526134888161344c565b9050919050565b7f4e6f74207472616e7366657261626c6520747970650000000000000000000000600082015250565b60006134c5601583612948565b91506134d08261348f565b602082019050919050565b600060208201905081810360008301526134f4816134b8565b9050919050565b600061350682612567565b915061351183612567565b925082821015613524576135236132c3565b5b828203905092915050565b7f4e487b7100000000000000000000000000000000000000000000000000000000600052603160045260246000fd5b7f41646472657373206e6f74206176616961626c65210000000000000000000000600082015250565b6000613594601583612948565b915061359f8261355e565b602082019050919050565b600060208201905081810360008301526135c381613587565b9050919050565b600060a0820190506135df6000830188612cdb565b6135ec6020830187612bb3565b6135f96040830186612bb3565b61360660608301856131c5565b61361360808301846131d4565b969550505050505056fea26469706673582212207f31e0281310c087f14fbc9a00257124672ff3d056848377961901e9cbcd088c64736f6c63430008090033",
  "linkReferences": {},
  "deployedLinkReferences": {}
}